:100000000C94B2510D9481770D94B2770D94E377EF
:100010000D9414780D9445780D9476780D94A77806
:100020000D94D8780C94E3510C94E3510C94E35163
:100030000C94E3510D9447810C94E3510C94E351DB
:100040000C94E3510D94B9190C94E3510C94E351C1
:100050000C94E3510C94E3510D94082F0D940979FD
:100060000C94E3510C9489780C94E3510C94E35173
:100070000C94E3510C94E3510C94E3510C94E35130
:100080000C94E3510C94E3510C94E3510C94E35120
:100090000C94E3510C94E3510C94E3510D94BA7316
:1000A0000C94E3510C94E3510C94E3510C94E35100
:1000B0000C94E3510C94E3510C94E3510C94E351F0
:1000C0000C94E3510C94E3510C94E3510C94E351E0
:1000D0000C94E3510C94E3510C94E3510C94E351D0
:1000E0000C94E351D39CEF9C359D519D6D9D899D52
:1000F000C29DDE9D089E6FA479A48DA48DA490A4BA
:1001000092A494A4AAA4CCA49B01BD0281025B0189
:1001100007018D02B9021F010D025D017F01390146
:10012000550225017301A902AB015D021B012B01E0
:10013000A7022102370289028B016301E7014F0206
:10014000B10161010F0253027B01A301850131015D
:100150007D02B10137012F027D017501B301B302A8
:100160008F013B02E1015B0229026D010102DB010B
:10017000FB0095029D02E101EF0191016901084A2E
:10018000D73B3BCE016E84BCBFFDC12F3D6C7431AB
:100190009ABD56833DDA3D00C77F11BED9E4BB4C02
:1001A0003E916BAAAABE000000803F05A84CCDB2CC
:1001B000D44EB93836A9020C50B9918688083CA6AD
:1001C000AAAA2ABE000000803F000D943D450C9471
:1001D000F57D0D9411730D94CA720D943A710D94BE
:1001E00014140C946F800C94577F0C9441DC0C9485
:1001F000217B0C94587B0D94147B0D943C540C94EF
:10020000987B0D9421730C94BA800C9432800D94D9
:10021000B62F0C942F7C0C94359D0C94E8A20C9472
:1002200001830C94C29D0D94305D0D9471320C9439
:10023000247B0D94E0130D946B770C94507B0D94FC
:10024000E32F0D94EB130C942F7B0D9421770C94DA
:10025000EF9C0C949E7C0D946D770C946B820C94A7
:1002600048A20D94A17A0C94377C0C9492A40D941E
:10027000B57A0D9408770C943E7D0C9487780C9495
:10028000667C0C945D810C9406830C94A77C0D9481
:10029000F00A0D9493520D94AA550D949A360D942C
:1002A000BD670C94D39C0C9429830C94F6850C9414
:1002B00015830C949AE10D949C2F0D9436770C9431
:1002C000257B0D94647A0D94467A0C94D07C0C9422
:1002D0001A830D942A7B0D94AE360D94067B0C94F4
:1002E000F7800C94707C0D9442770D94F57A0C9401
:1002F000787C0C9410830D947E7A0D94C97A0D94B9
:1003000000770D942A560C9487DB0D94927A0C9406
:1003100064F60C94CE7C0D94417A0C9420820D945A
:10032000EB7A0D94267B0D94FD6A0D94AE660C94C9
:10033000F86B0D94B1180D94622F0C94B97B0C944A
:100340008DD80C945D7E0D94887A0C94247C0C944A
:1003500079A40D9420730D9473770D94B9660D9460
:10036000F3540D94D37A0D94F87A0C94F67B0C9494
:100370008DA40D940B3D0C94D87C0C949F7C0D9413
:10038000A53F0C94E4E10C947B7D0D9447080D94FB
:10039000D5720C940B830C94FF7C0D948D730D948B
:1003A000C1560C9433830C943DD80D946E6A0D9411
:1003B000FD7C0D94CB210D940E7B0C94CD7C0D9483
:1003C00085530D942F7B0D94E8520D944E730D942C
:1003D000507A0C94899D0D944D590C941F830D9463
:1003E000227B0C941A7F0C9494A40D946D3A0D9476
:1003F00007580C94CF830C946D9D0C945DA40C94C1
:1004000067830D940A7B0D94AC350C9404840D9491
:10041000AA580C94089E0D9452080D94EB2F0D943D
:100420006C7A0C94B87D0C948D7E0C94AAA40C94D8
:10043000C6DA0C9403890C9424830D9487300C94B1
:10044000257C0D9475770D949D370D94BC180C94F4
:1004500010860D94007B0C94ACF60D94E5760D940B
:10046000BF7A0C946A7B0D94437D0D94F6130D9422
:1004700077770C9446D70D94F17A0D9415680C9407
:10048000657C0C94DDDB0D94D5460C9490A40C9403
:10049000ED6B0D945F700D949F5A0D94A5430D94D0
:1004A0005A7A0D94627D0D94747A0D9414770C949D
:1004B000B17B0C94157B0D94FC7A0D9469770D94A7
:1004C000C4660D94FE720C94E77B0C94D3D60C9406
:1004D000FE7C0D94D7330C9405880D9445710C94D3
:1004E00000D70D949E350C9463880C9413E50C94FE
:1004F0002E830D9464570C94E5510D94AB7A0C94B3
:10050000467B0D948D2F0C94A9810C94EE7B0C945A
:10051000237B0D943C7A0C9467DA0D94C52F0C94D0
:10052000277B0C94B9640C949B830D94187B0C94DA
:10053000077D0D9490350D94F6720D941C7B0C94F0
:10054000CCA40C94B6820C94BADC0C94BCA20D948E
:100550006F770D944F770C94DE9D0D94F5590C94A4
:1005600095A30C94207B0D94E77A0C94627B0C94F9
:100570006FA40D94DF2F0C94519D0D94712F0C944A
:1005800002DB0D94CF660D94464B4D383420582035
:1005900059205A20450043616E6E6F7420656E7459
:1005A0006572207375626469723A20004D323400BE
:1005B0004D3233202573006175746F25692E6700F5
:1005C0006572726F722077726974696E6720746FDA
:1005D0002066696C65004E6F742053442070726908
:1005E0006E74696E67002F005344207072696E74D8
:1005F000696E67206279746520002E0044656C6521
:1006000074696F6E206661696C65642C2046696C44
:10061000653A200046696C652064656C65746564A4
:100620003A002E006F70656E206661696C65642CFF
:100630002046696C653A200057726974696E6720BC
:10064000746F2066696C653A20002E006F70656ECD
:10065000206661696C65642C2046696C653A2000EF
:100660002E006F70656E206661696C65642C204693
:10067000696C653A200046696C652073656C65633A
:10068000746564002053697A653A200046696C6598
:10069000206F70656E65643A20002E006F70656E85
:1006A000206661696C65642C2046696C653A20009F
:1006B0004E6F772066726573682066696C653A20B4
:1006C000004E6F7720646F696E672066696C653ACB
:1006D00020002220706F73002220706172656E749A
:1006E0003A2200535542524F5554494E45204341FA
:1006F0004C4C207461726765743A22007472796997
:100700006E6720746F2063616C6C207375622D6757
:10071000636F64652066696C65732077697468200F
:10072000746F6F206D616E79206C6576656C732EC9
:10073000204D4158206C6576656C2069733A0053F2
:10074000442063617264206F6B006F70656E526F3E
:100750006F74206661696C656400766F6C756D6599
:100760002E696E6974206661696C6564005344206B
:10077000696E6974206661696C0043616E6E6F74A6
:10078000206F70656E2073756264697200656368BE
:100790006F3A004572726F723A0048617264636F1B
:1007A0006465642044656661756C74205365747477
:1007B000696E6773204C6F6164656400204400209B
:1007C00049002020204D3330312050005049442032
:1007D00073657474696E67733A00205A002059007B
:1007E00020204D323036205800486F6D65206F66EE
:1007F0006673657420286D6D293A00204500205AE3
:100800000020580020420020540020204D32303576
:10081000205300416476616E63656420766172697D
:1008200061626C65733A20533D4D696E2066656563
:10083000647261746520286D6D2F73292C20543DDE
:100840004D696E2074726176656C206665656472B0
:1008500061746520286D6D2F73292C20423D6D69D0
:100860006E696D756D207365676D656E7420746952
:100870006D6520286D73292C20583D6D6178696D58
:10088000756D205859206A65726B20286D6D2F7325
:10089000292C20205A3D6D6178696D756D205A2094
:1008A0006A65726B20286D6D2F73292C2020453DC1
:1008B0006D6178696D756D2045206A65726B2028C1
:1008C0006D6D2F73290020540020204D32303420CC
:1008D0005300416363656C65726174696F6E3A20A1
:1008E000533D616363656C65726174696F6E2C2042
:1008F000543D7265747261637420616363656C65F5
:10090000726174696F6E00204500205A0020590002
:1009100020204D3230312058004D6178696D756D61
:1009200020416363656C65726174696F6E20286D28
:100930006D2F7332293A00204500205A00205900BB
:1009400020204D3230332058004D6178696D756D2F
:100950002066656564726174657320286D6D2F7300
:10096000293A00204500205A0020590020204D3906
:100970003220580053746570732070657220756E54
:1009800069743A006563686F3A006563686F3A009E
:100990006F6B00446F6E6520736176696E672066C9
:1009A000696C652E004D3239006F6B0053544F5007
:1009B0005045442E20005072696E74657220737425
:1009C0006F707065642064756520746F2065727245
:1009D0006F72732E20466978207468652065727284
:1009E0006F7220616E6420757365204D393939202E
:1009F000746F20726573746172742E202854656D53
:100A000070657261747572652069732072657365B3
:100A1000742E205365742069742061667465722099
:100A200072657374617274696E6729004B494C4C2E
:100A300045442E20005072696E7465722068616CA6
:100A40007465642E206B696C6C28292063616C6C62
:100A5000656421006F6B00526573656E643A200017
:100A60000A00207A3A200020793A200020783A20A3
:100A700000426564002200556E6B6E6F776E2063D6
:100A80006F6D6D616E643A2022004368616E676528
:100A90002066696C616D656E74000A00207A707260
:100AA0006F62655F7A6F66667365743A20007A5F7D
:100AB0006D696E3A2000795F6D696E3A2000785F4B
:100AC0006D696E3A2000205A3A0020593A002043BE
:100AD0006F756E7420583A200020453A00205A3A2B
:100AE0000020593A00583A004649524D5741524564
:100AF0005F4E414D453A4D61726C696E2056313BF7
:100B000020537072696E7465722F6772626C206D0B
:100B1000617368757020666F722067656E36204657
:100B200049524D574152455F55524C3A6874747062
:100B3000733A2F2F6769746875622E636F6D2F4546
:100B400072696B5A616C6D2F4D61726C696E2F20EA
:100B500050524F544F434F4C5F56455253494F4E9E
:100B60003A312E30204D414348494E455F5459504B
:100B7000453A524F424F3344523156322045585431
:100B800052554445525F434F554E543A31205555C6
:100B900049443A30303030303030302D3030303021
:100BA0002D303030302D303030302D30303030304E
:100BB000303030303030300A00524F424F334452E0
:100BC000315632204F66662E00524F424F33445208
:100BD0003156322072656164792E0042656420646A
:100BE0006F6E652E0020423A0020453A00543A00CC
:100BF0004265642048656174696E672E00486561CE
:100C000074696E6720646F6E652E0020573A00206D
:100C1000453A00543A0048656174696E672E2E2E7D
:100C2000002042403A0020403A00202F003A0020A5
:100C30005400202F0020423A00202F006F6B2054D8
:100C40003A002569206D696E2C2025692073656343
:100C500000456E642066696C65206C69737400429F
:100C60006567696E2066696C65206C697374004EF7
:100C70006F206D6F76652E00526573756D696E67B6
:100C8000207072696E74005761697420666F7220FB
:100C9000757365722E2E2E000A00205A3A2000200D
:100CA000593A200020583A20004265640020643AF6
:100CB000200020623A200045716E20636F656666F1
:100CC000696369656E74733A20613A2000486F6DFC
:100CD0006520582F59206265666F7265205A00485A
:100CE0006F6D6520582F59206265666F7265205AB6
:100CF000004E6F742046726F7A656E2C20726967A1
:100D0000687420656E6473746F7073206F6E6C7995
:100D100020666F7220686F6D696E67005A2070726E
:100D20006F6265206F75742E20626564005A2070B2
:100D3000726F6265206F75742E2062656400486F63
:100D40006D6520582F59206265666F7265205A00C4
:100D5000486F6D6520582F59206265666F72652057
:100D60005A00536C6565702E2E2E00256920686F21
:100D7000757273202569206D696E75746573004402
:100D80006F6E65207072696E74696E672066696C3B
:100D900065004E6F7420676F696E6720746F2070F6
:100DA00072696E7420666F7220736F6D6520726554
:100DB00061736F6E210053544F505045442E2000F4
:100DC0005072696E7465722073746F707065642000
:100DD00064756520746F206572726F72732E204681
:100DE000697820746865206572726F7220616E6424
:100DF00020757365204D39393920746F2072657301
:100E0000746172742E202854656D706572617475FA
:100E100072652069732072657365742E2053657442
:100E200020697420616674657220726573746172E2
:100E300074696E6729006F6B004E6F204C696E6598
:100E4000204E756D626572207769746820636865ED
:100E5000636B73756D2C204C617374204C696E65E7
:100E60003A20004E6F20436865636B73756D207781
:100E7000697468206C696E65206E756D6265722C90
:100E8000204C617374204C696E653A20006368657C
:100E9000636B73756D206D69736D617463682C206D
:100EA0004C617374204C696E653A20004C696E6524
:100EB000204E756D626572206973206E6F74204CD0
:100EC000617374204C696E65204E756D6265722B7E
:100ED000312C204C617374204C696E653A20004DB2
:100EE000313130002020506C616E6E657242756643
:100EF00066657242797465733A20002046726565B2
:100F0000204D656D6F72793A20004D617920313145
:100F1000203230313500436F6D70696C65643A2062
:100F20000028526F426F2033442C205231205369E5
:100F30006E676C652045787472756465722900204F
:100F40007C20417574686F723A20004D61792031C0
:100F50003120323031352031373A30333A303900B0
:100F6000204C61737420557064617465643A20008C
:100F7000312E302E30004D61726C696E0020536F3F
:100F800066747761726520526573657400205761DD
:100F9000746368646F6720526573657400204272E1
:100FA0006F776E206F7574205265736574002045ED
:100FB000787465726E616C20526573657400506F51
:100FC0007765725570007374617274002200656EEB
:100FD000717565696E6720220046696C616D656E8A
:100FE000742073637265656E005072656865617424
:100FF0002073637265656E005072696E74696E6706
:101000002073637265656E005072696E7448656125
:1010100074696E672073637265656E00486F6D65F5
:101020002073637265656E0053455454494E4753AF
:1010300000436F6D696E6720536F6F6E00436F6D75
:10104000696E6720536F6F6E0053746174697374B7
:1010500069637300537461746973746963730053D3
:10106000657474696E6773004E6574776F726B0098
:1010700053657474696E6773004E6574776F726B35
:10108000005554494C495449455300436F6D696EAE
:101090006720536F6F6E00546F6F6C7300537973DA
:1010A00074656D00546F6F6C730053797374656D64
:1010B0000047393000473120452D3520463130304A
:1010C0000047393100473930004731204535204647
:1010D00031303000473931004E6F7A7A6C652069C3
:1010E00073206865617465640046494C414D454E06
:1010F000540057616974696E672E2E2E004F6B0085
:1011000052657475726E20486F6D65004F6B0052AA
:10111000657475726E20486F6D6500446F6E650072
:101120005072657373204F6B20746F2073746F70EF
:1011300000457874727564696E67005072657373E8
:10114000204F6B20746F2073746F7000526574723F
:10115000616374696E67004E6F7A7A6C65206865AA
:101160006174696E6700537461727420686561749C
:10117000696E670068656174696E67007374617297
:101180007400507265737320746F005265616479E6
:10119000004E6F7A7A6C652054656D700046696CFC
:1011A000616D656E7400556E6C6F61640046696CAC
:1011B000616D656E7400556E6C6F61640046696C9C
:1011C000616D656E74004C6F61640046696C616DA1
:1011D000656E74004C6F6164005374617274757055
:1011E000004732380047312058302059300047310D
:1011F00020583020593000473238004731204632DD
:1012000030303000796F757220526F626F33442036
:101210005232203344207072696E7465722100432B
:101220006F6E67726174756C6174696F6E732C2078
:10123000796F7520617265206E6F772072656164C9
:101240007920746F2075736500446F6E6500446F7C
:101250006E65005468656E20707265737320646FEC
:101260006E652E004E6F7720646F20746865207362
:10127000616D6520666F72207468652072696768A9
:1012800074207468756D622073637265772E0053E5
:101290007465702036206F66203600436F6E746967
:1012A0006E756500436F6E74696E7565006C65667A
:1012B00074207468756D62207363726577206C6545
:1012C00076656C007573696E672074686520736855
:1012D000656574206F6620706170657220746F2080
:1012E00066696E652074756E6520796F7572004D44
:1012F000616B65207375726520746865726520691D
:1013000073206120736D616C6C20626974206F665C
:1013100020726573697374616E6365207768696CA8
:101320006500537465702035206F66203600436F6A
:101330006E74696E756500436F6E74696E756500D5
:10134000726573697374616E6365207768696C6533
:10135000207573696E6720746865207468756D62A6
:1013600020746F206C6576656C2069740074686504
:10137000206E6F7A7A6C6520616E642074686520D7
:101380006275696C6420706C61746520756E746937
:101390006C20746865726520697320736F6D6500D9
:1013A00066696E652074756E6520796F757220624E
:1013B00075696C6420706C6174652C20736C696451
:1013C000652074686520706170657220626574774D
:1013D00065656E004E6F772072657065617420746C
:1013E0006869732073746570206275742075736505
:1013F0002061207368656574206F66207061706578
:101400007220746F00537465702034206F6620362C
:1014100000436F6E74696E756500436F6E74696E1C
:101420007565005468656E20707265737320636F14
:101430006E74696E7565006E6F7A7A6C652069737B
:1014400020316D6D20617761792066726F6D207437
:101450006865206275696C6420706C6174652E002B
:1014600054776973742074686520726967687420A2
:101470006C6576656C696E6720736372657720753D
:101480006E74696C20746865206E6F7A7A6C650082
:10149000537465702033206F66203600436F6E747E
:1014A000696E756500436F6E74696E75650054688A
:1014B000656E20707265737320636F6E74696E75EC
:1014C00065006E6F7A7A6C6520697320316D6D20CE
:1014D000617761792066726F6D207468652062752E
:1014E000696C6420706C6174652E00547769737444
:1014F00020746865206C656674206C6576656C691F
:101500006E6720736372657720756E74696C2074E2
:101510006865206E6F7A7A6C65005374657020324E
:10152000206F662036004731205A25642E2564003E
:10153000436F6E74696E756500436F6E74696E7586
:1015400065006E6F7A7A6C6520697320316D6D204D
:1015500061626F766520746865206275696C6420CD
:10156000706C6174650050726573732074686520D7
:101570007570206F7220646F776E206172726F7762
:101580007320756E74696C20796F757200576520D1
:1015900061726520676F696E6720746F206C657675
:1015A000656C20746865206275696C6420706C617C
:1015B00074652E00537465702031206F66203600EC
:1015C000436F6E74696E756500436F6E74696E75F6
:1015D0006500796F7572207072696E7465722E2065
:1015E000507265737320436F6E74696E75652074F5
:1015F0006F2073746172742E0057652061726520CC
:101600006E6F7720676F696E6720746F2072756EDA
:1016100020796F75207468726F75676820736574C0
:1016200074696E672075700057656C636F6D652017
:10163000746F20796F7572206E657720526F626FBC
:101640003344205232007072652068656174007303
:101650007461727400507265737320746F00526508
:101660006164790052656164790042656420546563
:101670006D70004E6F7A7A6C6520312054656D7004
:10168000004142530041425300504C4100504C41F4
:101690000043686F6F736520796F7572206D617498
:1016A000657269616C005052452048454154004DB7
:1016B000383420582059205A2045005265747572DC
:1016C0006E20486F6D650052657475726E20486FAC
:1016D0006D6500526573756D65205072696E74009A
:1016E000526573756D65205072696E740050657235
:1016F00063656E7420636F6D706C6574653A202548
:10170000642525002564003025640025643A0030F6
:1017100025643A0025643A003025643A0054696D26
:101720006520456C61707365643A20004E6F7720C8
:101730007072696E74696E67200041626F72742006
:101740005072696E740041626F7274205072696EDB
:1017500074005061757365205072696E7400506139
:10176000757365205072696E740052657475726E7F
:1017700020486F6D650052657475726E20486F6DFC
:1017800065005072696E74696E6720436F6D706C8E
:10179000657465004D383420582059205A20450082
:1017A000507265706172696E6720746F2070726923
:1017B0006E742E2E2E00526561647900526561644C
:1017C00079004265642054656D70005265616479EA
:1017D000004E6F7A7A6C6520312054656D70004D33
:1017E0003234004D6F756E7420534420436172642F
:1017F000004D6F756E742053442043617264005530
:101800006E61626C6520746F206F70656E2053444A
:1018100020636172642E20506C6561736520636F74
:101820006E6E6563742069742E00496E6974696117
:101830006C697A696E6720534420436172642E009C
:10184000FFFFFF0000A0400000A0400000803F001C
:1018500000704300007E4300007043000000000061
:10186000000000000000000000704300007E430004
:10187000007043000000000000000000000000783D
:101880009CED5D4B6CDBC819DEA36F4D6307FBE875
:10189000768B1C7D4CD77236D834057CCC2D062235
:1018A00009D9C67BF031B76CDB58769CE8A0030BF6
:1018B00050855998AD69893678E04107D9EB6E1D9E
:1018C000AC63C9067CD04107D90E5A2DD6F15A0710
:1018D0001F741050C5665101AB60D5F939A4C4C757
:1018E0005096171067B4E5FF411425CE88DF8CE6CB
:1018F0009B37675AADC0020B2CB0C0020B2CB0C096
:1019000002C3266B4BC5BF64AE08FB5C89FB375F27
:10191000E2F6D18B028CBBD6F97BD27F363EA8B4DF
:101920009ABDF2BF5DBDF6E29E5CE775FE3498237A
:10193000ECEB80B39F098FE5F0DE7CDD8B6DBE9113
:101940005898E0D8456189DF689CF49E7A6E554BC3
:101950005BD5F4344F9B3746626148B9B237E7191B
:10196000FB6095E652F149A12BF4EBDF962BCDB647
:10197000FBEE3EF4EB5FBF3A6974EE22D7FF997D30
:10198000C3AF27F611D60D74CEE8605FC7A4B45478
:10199000BCF87F3D2A3F96F799606F72C06CF6B92C
:1019A000AFD4A735B2B226B8EB8977E2D7132C4370
:1019B0005DFCA27471EC6F96AB69BB3F7AE1823B30
:1019C000BF13C7F79FE046D55B552FD6B2B6164773
:1019D00048E8472F240093326845AE5BAFAC7BF9F3
:1019E00044FFFD3DC9BC47B33C299E7387DC01FA27
:1019F000B6EB7D7CC67EE2803B4378F745A54BC9BC
:101A0000B5A3DD7C09AE0EB8758887789632EBF603
:101A1000FD130788FF397755387A4552D6348FD36E
:101A200000AB30D36A69EBA44BECE71BA52DC823B0
:101A300070AA660798D10437CD2F12621F6C45BB80
:101A40002A9CF187DC196F1C3902784857879C84DF
:101A500072F7BC06EEDE182E3D7D20F7673CBEC354
:101A6000D1ABE1E470F21CA7CBC49A9EE3AED143A4
:101A7000BC7DD4CF0E386057CE7A696BB7B1A982DE
:101A80008B330EE721EB46AA6EFF120DFE71F3B801
:101A90009E38D3F91FB9727E5C1BA495B3F70A5C1C
:101AA000B7E237BC7535AA6237B49976E3EFA52D56
:101AB000B93E7F211E56C7048D8FEE400EFE313A8F
:101AC000FB6467BE0EFE56EAF335A28FDA98382C17
:101AD000C0AFBF2D87C410F2B18F4A2C07DCDFF4F2
:101AE0001F9CEDAEFAF92137268484F75F9063E7F7
:101AF0009B4C085D3DE46CBF40833939EED0FB3927
:101B00000F0C7F73EA4C93EA222BAD92EE98E6A776
:101B1000F9EC2639F64755B84A9BE145ECA7F9CBD5
:101B2000B4189DF6072924CCEEA13C5CBB8F94929F
:101B3000BAB06DF247F9BE0825E2921C1147047253
:101B4000B9461FE7FA7138191123E231A1C63FB730
:101B50001311C7C573BEE39629F098D38810159763
:101B600094155B7B3ADF282C2516F0FFCE36120B3E
:101B700080F2913BF64B5BF81A76459B6737FED5B2
:101B8000745A73B2AF3473A50B514C152352449A57
:101B90002B4099F5448A88B98B94D55C5266E456FB
:101BA000EBB39D185216D457D806CA352449DE75B2
:101BB000C4CE543526C7A41161F84FB4F95D84270B
:101BC000524C7EBA67575635AD2E0E0E8614676B93
:101BD000EB418D36A7CBA0B4E594C06E23265D0003
:101BE000198EB3724C4E17C0FDB21293F317F6E87C
:101BF000BC5497954A635B49C921610421245CD395
:101C0000DFD9424818434778C5A49CFC9D235472F1
:101C10002127CF20658D24C14D883A5B27AE215600
:101C200018A81621E7546BCE00CA2A2C0D129C3539
:101C3000AA2B7BB4195D06EE526BB79156D2725740
:101C400028F89552768AE03EA7A65D69D065CDE377
:101C5000CCB6FA433987541812C6C5B0388E8EAC4C
:101C6000222C84C58894538E3315CB484105852199
:101C7000A74450DD372CEA216010062B14B7CB7235
:101C80004EB1FE2BF9C690524D0F12EC6D2DE8BBF4
:101C9000A0CDE872708D1F343FAF4E5D883BA748E2
:101CA0004F4A1E94A5C1592FCACAA90F7790B250A6
:101CB000DD312A454568C9A077A680188926BB1959
:101CC00011E5FACA94657462AA9A53520A7225B150
:101CD000C7DC0211872286D87FF8777BCA1C528620
:101CE00094517530005CADB9FEAD2A663F182100F5
:101CF000AEDE3D9CDDEDD85456631B9D9D78F433DC
:101D00005ADC2365BDCDE69465B953A3641B90EB03
:101D1000FF50EE84004ADCD400F03681CA5CB55333
:101D2000E6E61B7733A3EADDCCA000D2E77B96FE84
:101D3000CDCD327C439BD565F8DFCD385B8A774EBD
:101D40002FC647959C9A9257DA65D6FCDE54771FCA
:101D5000956335A7A2174A9B1D2C33870EB314AA8F
:101D6000F1226559728C93524E01FECB8C72B7876B
:101D700000F1473943A7A575D27894BD9B7994EDBE
:101D800080DFB07E620BFC06A44E6BFFE0E22B60AE
:101D90006F7266993B6607FCF30DABAEF476562F77
:101DA0004029EF5715A39D856A4939FDDB6D0F97D3
:101DB0002895CAA02C48ADDB4A0E43CE29EC61BB66
:101DC0007DDC96EDCADA295AB80F083ACAFAAEC1D4
:101DD000766A24C1AE2CDA6C2E0FD9D6878194D2C4
:101DE0009BB2503965BA4FB5F59392BBB98732AB08
:101DF000937A07015665E58B5EAEB629E711109F11
:101E000069E2158BB29AD94D7E63B060ED1DDC2C72
:101E1000D366E3055C4691AED8CBAC56EBF36A775C
:101E20003CAB4EA1E36ABD57F7BA8FDA73E47EA5E7
:101E3000FEBCFEBC86607D6718AB756BDFE06EC3D1
:101E4000E50285E159E71C87C95F18777F5633188B
:101E5000D8601F2B7EAACDD5070BD6764ABE41721D
:101E600091D6F0CB3CA709E7FDDD63C58105165887
:101E70006081051658608105165860810D8A559A53
:101E800083861EF937BA3D29D96FEB95FF4973D088
:101E9000600F67AFEEFCB5DEF9F7D3DE668F33086F
:101EA000EAE0C03A07E3BB12D18D1E22B98727FCB6
:101EB000FB63BB5A9738CDECB6FB364F9AF5ADD2E3
:101EC00080C13A07A37CE4EDCEEB49C3FE1B3CE1A5
:101ED0006C22BB895F1D387BDDFB6730A6CC36DA10
:101EE000E371C6BB75D6965CBC686C8F86ED6ADB09
:101EF0004A7B96B403B639183FE1F1AC496AF95A06
:101F0000BED18DBF7FCAC27330CC91D514D5D15507
:101F1000E288ABCE2B2D9B23AF7665E57565D9475F
:101F2000B9D378945C992FF815874EDBD54CAED693
:101F3000F92339A2B2C8E399ACE251D6AE2C2FF600
:101F40008FB281B24059D67983CCC336231794958A
:101F500022F24F2B324D6579C4AA63DE60D36BA6A3
:101F6000009B70CE6E026591F8C3B77495458E558F
:101F7000F8D64F65A59494316FD43E7B941D587963
:101F8000A5E58F5E5B62B18853F0B2C33D756529EC
:101F9000A6B296652B3F7B9995FF09CF1BA4A7ACF2
:101FA000B4D68DBF7FB330A0CCA23D17BC7740DB49
:101FB000E59965ED3EAC2CB24BBA65169955CAA1B0
:101FC0002CE75C77B6419AEB4EE67F374357595E74
:101FD000ACFC57564C9A45C047B6106BF382A7B37A
:101FE000D2CADBAC75C55CACAC58DB45CC38B2A012
:101FF000AC0E9F4E4852B25B598305B7B2C8B84188
:102000002DF6D35A37FEFE2A8BF6F380BD026A53B3
:10201000D6561656D632E1C9C7590694450C81AB3F
:10202000CC1AAC27074755BBB2BCD88FAA749545CC
:10203000E605DFFAADAC19047C640D1D56A0ABE3D8
:102040008C7DA475475796DB171BCA7287C5A92CD0
:102050009C5A3B707E660F4E657981B6B2C871EAB4
:10206000B7B266A4A834A3AF23815340D43876BE58
:10207000E92FA28E17E049FB1A06D4EF72EA9463A7
:10208000856E5C6645DBBF621E63127D6559E31297
:102090006217E70E4E650DC61A122686944D4B9DAB
:1020A000E18B92177BD8AB8046CC83A535AF9539B1
:1020B000E05B1F95950165E92BA04811D15CCF2508
:1020C00022B621F519C67DA296A3FD2C22E2F22AA2
:1020D0002DFFE05A491294352B5B5C1BBFC780B2C1
:1020E00094F6EA386D6E5197B2F0BA274E98EBCE5F
:1020F00090AEF905AFBB3B95E505DACA2287C86FFC
:1021000065D994E433C2C631EC717D46C23D6AA8FC
:10211000BC3A75B3C7CA72FA0D235FF495450A4DF0
:102120006FCA621983A0AC6EFCFD54564AC629BB27
:1021300003F81C93FD5AB105C6796252D85059B8BC
:10214000ADB58804E3C2788EC5C39D55F23E3945CE
:102150006825864527A20C28CBCD0A294BB1AEE5D0
:1021600089D7EBB3FFF3F833AC8D477B2D42938BCC
:10217000955B356D571676E7047C4B57592456F816
:102180005B3FDB59A02C730DCF303E13C605587F43
:102190002C6DCCC8E93760569579E7105EF952E7A7
:1021A000A3F759A8F385E7445581616519EC3BEB2A
:1021B000900A0C284B1E172DAC70AC8AF65572078E
:1021C0006F254FBBB2268BDEEEEA791A310F86956A
:1021D000E5955BF8DB83111661A78C36F44FB348A5
:1021E00059BFAD3CF3615D8CD51A5E4D14EE3A6E6D
:1021F000E521CC48F6952FDD062BCC609F76444434
:102200000694E562352EF4AA2C5829B97CF4A04630
:1022100007F5FC602BAB5BCEE06B6D501917DD69E9
:1022200073D6D622E8AF3DAFC1EC3F120B2839EF91
:1022300054BC7DB2AC2C372B7D6577C5AE2CEF55E9
:10224000C8BBEF03DA4FBB51F066657D3A64B2E874
:10225000ED8EAEB27A5FD9BD7FA6A701D1BDD23FC8
:10226000F4AEADFAF6DFDE7E09BDD4B0EB810D49E8
:1022700050C8EB8CF7338CF922F4C1B9D98751BD22
:102280008BE65CF76D655976EEDE30A6E714DB363B
:102290006575DB31819EB2BAED831028AB57DB56F2
:1022A000210D0C27F5546DA6ECE470126608ADFA0A
:1022B000C662B5BE2CCFCA6384BD3C80C72F5F7B8E
:1022C000F94B1753FA0E454E5FB03BC1536A6DE8A8
:1022D0001D2DA5A0D0B858A1D0C82987B2BCF7A49D
:1022E000A1A92C6F5676655D66471DBF2CAD15966E
:1022F000BC581596FC53D6B2A2EF3EE5DAED09C6FE
:1023000066577CFC6F7FF16296B88B17D44BBFCFBA
:102310007AF94A179CBE46DABEE8296B57831957EB
:10232000A0777B5846923086F0D351D68D42A02CB0
:102330006F9314A8859DF3F63470CEC3CE197E2A10
:10234000EB593586EA83A41DDD60DCF7D8E3D9EFCD
:10235000742126C17E8FD8A5C69BECC75059F719AA
:102360003565ADD46372541C366255B3C46D5442A6
:10237000B16A5116A401BC67A21D900A1E78F688A6
:10238000F6DBEA79B83F99955B596477F494355751
:102390003763D5C90D78F9A7AC25D44E8134E0C494
:1023A000B83823F9A92CD87B322A85043793112118
:1023B0002A6DA9643FA982D38FC6997E66E46F33E4
:1023C00074B09581B177774834945FCD389445D215
:1023D0001506BD794FDD585977A0BA51F076575898
:1023E000A2C57E48F166E5A7B29EE8B5A973EE9C4A
:1023F000B3A401F42924447C56D6540DC65235BEEC
:10240000CD84C34CCEB9712122BE2D93FCCC156076
:1024100057BAB6CBB6AF9124BD59251837455B9C4A
:1024200072667E8562B54765B1895E95C526FC55A5
:1024300096B97BB61DB08BA2BFCA6AB5DE7F41DEFE
:10244000897C387953FC9B4AEA219C2B8C231F877B
:10245000AE3DC3CD94ACB9CA0D3F7055AF0390F6F5
:10246000320F3994A52ED2DE1BFBB2B02AEBCA1E66
:102470006D36974562C1BFD66B186A53DC01776829
:10248000E0CC781F1142BE2BEB590DC67C80CD5994
:102490009B0966760DB1F9B0E2F6F1B214D295D58A
:1024A000E17DC8BDD17D1DB48F74600D83F90EF937
:1024B000D57D7167A09565EF1BA4CDE6B2482CF8D9
:1024C0005766DD9720651EB800FD6B7E2BABD5FAF5
:1024D000267B0DB59A3ABA30DE13E7485B7F555A32
:1024E000AE52EB7605C6081CDC1384331F61657E93
:1024F000E8B83222DC973A652F56D604C71AC89C32
:1025000070DAB4AE37D838816FBC7E8166C8DCF72C
:10251000C6EC0B4BFEADE539865A597A1AB4613FC9
:10252000A1F12382ECBBB21ED6C604E0B3AF733078
:1025300079C127E8C37EE9DA79F9A4897286A4C152
:10254000DA150A4680358E4201EDBF8665A75CB973
:102550009158A097FA7E0CD445FB2E3FEA226D4697
:1025600097C38FDDA7F8C798AE2CF4AFDBB18E52BE
:10257000C1B0304F6144A5B1319C3CE3D60D161D6E
:102580003E87A8141515B7FB4F5E6A3CB8FFD215FD
:10259000065660C62E8A53D4EE6B5A9E31CB0F90EE
:1025A000B2AE27E098DDB4C77E69AB73CD7EC62698
:1025B000CAAE27FCFA671F8BE71CFCEB76ACA19434
:1025C000ACF1349475FB145AFF1D1EF81D189E7152
:1025D000E7FC916B5C0BBB3FD0DDBAC3411F6BEDD9
:1025E000301C20FEBFB7E50DB8CCBA9E180C40CA0F
:1025F000748EB13DA8613DB10FE0A92EF637EDDA3A
:10260000EDAA00393EFCFF6B71E308EF7148073417
:1026100094D56AFD77E30CD59E0C1EE87DDD6075D0
:1026200080D4FE6BD1DD43F8EE0BE49EC3AC0D3FCE
:102630002CA11D0AE8C1B0E70CF9C6344F3BC55DBB
:10264000068F087361F80DDAAC7A87BF6BCDFF5C3B
:10265000B0A44A0B201DCF539905305F3BD0959213
:102660008D9BBCB2C63BB457DCA556A539291DA22B
:1026700072D7F0C11CFE1C37B8733777ECCC4D65B0
:10268000BD13671B385DAA8BA4F5654F9AEA220E2D
:1026900003BBE1C0FCFD9E15F286DF4F64E3491DDC
:1026A00059FD853F41ED858EB25AAD7FA85FA27C72
:1026B0003E6930C9C6CDB3B5F87EE206A1D4FA5D55
:1026C000F58D5E1F34C3C11280D37A1CD8FDCB9523
:1026D000E3E71B133CBBE9D19E32130BB7AA4EFEB6
:1026E000D86E55717D9036CBEEFC49E56D7FED0DD2
:1026F0006AD3905204A4625ACA9AAFEE736B6456BE
:1027000028857E4B28D33F3DBD22AC33A92D5C9B51
:102710005D4F4476DCACE5C604473BD5F5866ABA26
:10272000DB08EB7BA7D33C6D86DE00CDD378A60516
:10273000A5618F14B1464D59ADD663C5CD2AAB63A3
:102740002D7E4F26CDC6785AFB2A836B5FECA8CB33
:10275000A8CF261ECBDF13FBA4648DE59CDEC4044A
:1027600057DABA681468AE7E37439BA717ECCF419F
:10277000FB6757841247469D520F06D8A7A775DE00
:102780008B5789FBDAA325FAC1EBAF32DEE1A181D9
:102790003AFF582195B1D858EF759FE661CE7AAFD0
:1027A000F381CA47A32A5BE199E687147A3BE405E3
:1027B00016586081051658608105F6FF6CFF03E727
:1027C000349337789CED5BBD721B39127E0BD1BB05
:1027D0002BFB2DB6487BAD7B0CDFD0B6F61EE33C61
:1027E000B3256D2205134CE8B269527444075BA50A
:1027F000C481CBE69FAA143860C08081B4654B6663
:10280000A0E002054C2CB3EEA89F630F8041E36F5C
:102810000624E5BBDAAA9E2FB1383D8D46F7870620
:10282000D0804F9353028140201008040281402041
:102830001008040281402010080402814020100882
:102840000402814020100804028140201008040284
:10285000814020100884BF087A85F0975D4CEF22F4
:102860009AFDDBF5E9DF72928BD9EFE3E5D57BBF0B
:102870004C3C57F5E822D86EDF389E7BC7D7A36E55
:10288000D2456DFE7EEE92BD1EF5066ED9AD36BC0C
:10289000DB422DFD7E2EA5C123D723F9EEEE9B6EE4
:1028A000F265E06A497D40D6ED8FDEBC77D7A3D7CD
:1028B0001321FD7A723D025BECDC3998E66BDE5E3B
:1028C000C07E9D3DD7A37BC76ECFBA638075760D62
:1028D0009FDA7AEEA7ABA744433E07D3EB11B66D60
:1028E0005576B9DA11CF78B677285B73F32B5FF69C
:1028F00069BBA1F1EBE6E67404BF09691C9FF537DB
:102900008DA4E7C92F90155AF49E350F25B3F0F327
:102910007A82ED944C54A5B07D364FE5DB2FBFBCD9
:10292000DAC3CCC2CFBDE3933D26971F03A9D3F4EE
:10293000A9DE737F5DF972CCB6D539E6638FF0649A
:10294000B7805FF0F40636D9A7ED7A524F369596E8
:10295000C6B359AB9E7908C767D68ABCF9053AEA6F
:10296000167EF5927FFC2BEFBB5FCF446C057B742A
:10297000161C4CA344D867F3549EFDD2A6EDF678FE
:10298000E6B6428CC8E218309DDB864FA57DFEF18D
:1029900064BA8AE4C6B3CDF6EA79CCC71ED617E08E
:1029A000CD7621BF98F55D4DF6413B8CA3E4A9D6C9
:1029B000527312C575CE461C9F4FAD6ADCF5E4D745
:1029C000A716E868185E2E1A09CD09B353CC6FBD5F
:1029D000C4E4C12F6D669F90D13DE5B65FD8E43366
:1029E00076CD9167EFE7DC83B1E9D3FA12FC4A7543
:1029F00019D1B03D10F7D518A6DAB375BEB6BBB67F
:102A00005B8A4B7167D847AB91CD33E8893A7E7EBC
:102A1000684B591C9BAB2353F6413B88C3F889D1C3
:102A2000A3939188D0158ACF875610373CF9F5616A
:102A3000CE45DDCB662ED29FF10CF312B077684AFB
:102A40005D1E49DD3D6BE45CF6CFBF9BFFBEFE26FD
:102A50002F77652DCC258B630D3AC358F7A9E0FF7E
:102A600062FC62F63DB5C4FDD5607D8C25C7B34ED2
:102A7000CD363B2CCBAFCDF38B1D6809DAFAA18D97
:102A8000DB617EC0FDBBF3EEDB8E60D82BC486E637
:102A9000844545E56225AE5AF8958EF504E27C8AB8
:102AA000E2F3BE558E83B97C1057E2720C6D7486CA
:102AB000F26D38B8D8B9D8116D835ED5CBA6873BF7
:102AC000C3172DD6ABCEB099AEC8FEBD8FBF03FCE9
:102AD0007A66DA369E058A8C2D7276FB2B732ED49D
:102AE000B56CBF751E0D98157FEE7F3E825F36CEAA
:102AF000A09FA1166B880180C98A6854528FE83E56
:102B00000D0BF8E5D255D546BB2BEEE908B2AE3F2A
:102B10007CD965E7573906E0D1F7B256D5F2F39D77
:102B200077205B4A25DFB7E4EFFD29F399EA0BF044
:102B3000E42F96F83427E0A3BA129F179C5F8C61AC
:102B4000A558E3D747C9AF32E357A2F20BCF8DFDAB
:102B5000E98BD6372E2D38563D04AB31BFAEF64C3F
:102B6000CBE0797C08DA5996B3CF7636FB5FB64076
:102B7000BB9A933AC3B55D6CC58BD6FA38B3BF9098
:102B80005F65CE09DDA7CC3ABC4B29E69768D3C672
:102B90002F164DECED34B318EB0F7F7E752DFC2A0C
:102BA000A7A32550F8F5AC1668FDBBF34E8CAB20FF
:102BB000FE0DCD2EFD69D9EA0B3BBFD81C1369FC75
:102BC0002A717E891CA6F3EB1B67B6C842B2FF3A96
:102BD00057601460DF9563C8B7E558CD5F7D947F7B
:102BE0007F1ACB7F6F9CC90CE65A4DD9EC070F5C5E
:102BF0001DA97E55AD28732B5CF94B9565D9CB1C6F
:102C0000B37AEC6DF1B4E9B2B529E25E990347FEFF
:102C10003FFB7815BA2ABFA095C0C89FE3D9DA6EEA
:102C200045CBCFC02F26FBA48D2B470FCF4A965CF8
:102C3000EEE6D7CDCD8F6FA3F8C4C85FE003403870
:102C4000D775A2CD8FA5CCE36CAD87F7817825D55C
:102C50009C30FF8A0831C606FC5BB9FEC219EFE75B
:102C6000E77BA8AAF16C9EB7C51ADEB5B2B1D95FF1
:102C70008D9B484BF5F002E55B694735F6597F1DA2
:102C80004CABCC1BC9A2FC72EA4AD43621EE25EE2D
:102C900015F0F7065A2DCCF3BD651FB10ABFA095FC
:102CA000D311E6F0C333935FAEE7CE3B36C3E7F311
:102CB0006B13BD85159B199F289D77005182DFC23C
:102CC0002AA68CB8A557A9F04EEEF3116397E062DF
:102CD0000AC65BC4CBBB7F605B2E763EA3CC531F82
:102CE00008EFEA9E2AB21FFBEFD173B083CD71DCEF
:102CF0000AC58E227E855CF236F81572CFEAFC9208
:102D00003E57FDDD19562CFB88E5F8E57A8EF77DF8
:102D1000F90511F5E157F8F1211A23974738437166
:102D20007E25226FA8AB1BE0175BD98AF76A9D143A
:102D3000F3AB3D14D6B0553840B056EE1DF52F8E8E
:102D4000F7E5DF5BE76286543D55647F1063AF3083
:102D5000968BF8E956343CF217FBF276F2979D5FBA
:102D6000CCA7CCB653855FD0CEF7E4978C5211BF79
:102D700060EE62F9A268FD157EFCF9391EE1382388
:102D80000B7E090674357E4126C7FB3A757D7BA50F
:102D9000E42F1ED78C8B18E25B5CE53FDE871915AC
:102DA0005B06BB79B39A5564BFBA7A7D5493F1330D
:102DB000EDF0E7C4F7E597ACE699FC5A6E8D5F6CD1
:102DC000CF7CFF7068E78CF94403B6DAA958D7A224
:102DD0003ABFBEEEDCB7D49CE061FC1223C6C62F1E
:102DE000D78A0064D5F597882BE6A28ACDB752BE64
:102DF0003F657B87199A21D3F547CA8CCD05EC0F27
:102E0000B4F5976D4C0814ADC92BD96A60F5F57D02
:102E100025F6E117AED64483EFC5AFCBA3CEF01BAA
:102E2000DFAB999C113B33394E61ED22D74605FC4F
:102E30004AB9A856F3707C96E7D789B27F74558952
:102E40006444702D96ADD74AF16385A3154B448A2F
:102E5000EC0FE24B65FF688F51CF1283FF37BF4005
:102E600007CEBD7FEE976E8D5FD21E5BC5244A6C88
:102E7000FCC23E863D6585EF4FF2F915A533E9DFCB
:102E80006B7DE5CE828CCFF2FC6A282DF7A71F5A06
:102E90006AFE6A1E7E19E0EC515463876A6CD5D8CD
:102EA0007115D91FC40FB4FA979ABFE0D4FB6A2FEB
:102EB0002F7F313654F88E73B9F9314F973B7FE14C
:102EC000F528540E6E2F7F61BE9778A588EFBE8CD3
:102ED000331F565F5DDBC5F55E569BB0FB42E717BF
:102EE0001B53F72DD973157EF52CABE59391381351
:102EF000FD326095087903C5762EA43F974781512E
:102F00004528B25FAFD0DCDC6C9F77076CFD75F7AE
:102F10000F16C1D71376EBA6ABCCBCB816C52A19D1
:102F200062C7A7FB1FFBC13DD7BA74B9F8A5CE672E
:102F3000EDA1E4D7E215B022BE07A8CAD4D032036F
:102F4000ABAF82241EC3EF5BAEB166F28BB581E7F7
:102F500011199FE5F8C5A4EBD6D31EF51177428A67
:102F600025610CB39CACF32BCF7EF0DB8F6FF53774
:102F7000FA733085BB3245FB4778D86D89A2FD15C1
:102F8000F0D557976DFFD81BFC6D8C25C733D899AA
:102F9000DCDEFE51F03DC8B82EB8C5C699BDBE8A6C
:102FA000F7E662ACFBF04BD41AF53966757EB56B6B
:102FB0004DEBCD2FFCC0CD8593BDE2D9119EF49C85
:102FC00028D6F9956F7F3847F129FDC1144E906FCF
:102FD0008B5F972D7F5D3EF727D81C757BF52F51B2
:102FE000BF975914D72F757E9578A5FF133A7D1C8E
:102FF000CF5ED6FCF855E2ED84C6385F955F50C1D0
:103000007955DBCA8DC5C9083212BE65369E7DDD95
:10301000F98A4EEB707D6B7DACDFFF28B69F9D3D3E
:10302000FC963BFF3627708FC3E7AECC9336D46453
:103030008BF80537E7FC7415F36B3C63EC2AE778F3
:103040007B397E55959CD54573BB65FE877AB4B2B6
:103050001717E7093EFCE235752503AECA2F96C166
:1030600022D030B067A78D33767F42ADB7FC34569F
:10307000CF8223857B704E64F22BCF7EE6996AFC6B
:10308000A1B5619D83C733A82C05C6F9B6FD79D0DB
:10309000D6F7EFB6076ECEB94EE1B02EFDFCD17C6F
:1030A000D6C78F6A6C2F8DF7258BF34B3F6FC7FB0D
:1030B00008B57AA9F34BEC5FF4DB03FD69AD565C10
:1030C0009FE055157E1E112A0C2DE257FE7EA69715
:1030D0007439C382F9DAF0F121BE9DB675CEEEEAFD
:1030E00094D25D0BCEBB3737F7B333C2727AA6FEEC
:1030F000AC86DFD6078BDA1FF1B3ADEA5CDB3F6B42
:103100009DE143E54C8FDDD5B1DD65B03F70DBABB4
:10311000B8BE0D37E77CF8A59F2FCBA73FED0CE19C
:10312000AE87523958FAFE8458AF84FC1E8C3CC5D9
:10313000B0EFFD595E6077B2A02616C675E445A1D2
:10314000418EEB00C9B2158990C3A736E27BB8C1A6
:1031500072B123354B7E355209A68BAD7BCC3BAB90
:103160006A066BA4BD0AD27B0A7ABD45DE77813937
:103170004C5AAEEEB4AAD9ED33D12BF1ABAFFDFC76
:103180009DA609DFC44227A331D3B0B6CBB2A87E37
:10319000674BDC3AA8729F0A297CE747485533BF42
:1031A000BB75C9BE0B39F156F8A2842A07CBDF30B4
:1031B000ECA1B19ED5DFACB19371AE70D980D7B51B
:1031C000B117713550FE267B14F21B37F2EB6EC639
:1031D000DB0ABF3DA3DE19EC65632050DA75F759B1
:1031E000324C5A2059266EE784595C855E19ED7A77
:1031F0003A3A84ADF88BEA42F6F37789D484AD107D
:10320000EDD5797BAED120781FF2DB0D76B6EAB72B
:1032100044F27455B3BB29584E56A4CAB2C72BB159
:103220002BE357C2464680226BF24B66B0808F2656
:1032300071AED7B0FC5EB7FE265AC25F7791DE4A08
:10324000664343E317305BFDD2DD67C4B04CAF800B
:10325000BC15A3DA882B315D7E028DDF493EFADB97
:103260002FDED59388E71ED58E28F394F04C251BCE
:103270009165146951178D507F72A4E288675A973F
:10328000941A8D8A06D95FF93F4856E197F000AE4F
:1032900046B8F8256216A1D6BB96DFEB2242CA6F6C
:1032A00075F95B826D376D50EF74893CA0B69BD782
:1032B00067456B22466B88F4CBDB1491D6F72EFF63
:1032C000B6A1BDCBAC5FC07EE935A12BB302E9C08E
:1032D000DF87161816144A45B9BA94686872BA6D31
:1032E000BD15D825E3206F8CB8F98A3DA9562ED498
:1032F000DFF15D055516B784BFD66DD0EF74F51CB0
:103300005F16F54CD7ABDBE26ED56653C3219D67E4
:10331000BF7CEBB2C36DA7DD6A1FA986A72EB736A7
:103320006CDBB2DCD2E3A0D623FC25CDDFBBCEDF45
:10333000ECED14D9A0BFF7EDB7CD8A3CBBB15ED799
:10334000B78BDB6FF7906E477E5B42BE58C617FEA9
:10335000BD5B153D038BCB9ABFFBC1D78A456C2C57
:10336000B639CFEAFCEF96B5FF36DAFADFE23698E7
:1033700045201008040281402010080402814020EA
:103380001008040281402010080402814020100827
:10339000040281402010087F45FC176A2AC3D878B0
:1033A0009CED5BBD721BC9117E0B423A517A8B2B8F
:1033B0004032C9C790009F78AF7107C8E42564B058
:1033C0000142595A2EC88B70191305B2B8C0525514
:1033D00008142040807251B2447A03860C984864E5
:1033E000D9E08FD1E86D4CCFCFFE41746057CF57F5
:1033F0000AB8D398E9EEF9A667A66774D23E110819
:1034000004028140201008040281402010080402B8
:1034100081402010080402814020100804028140ED
:10342000201008040281402010080402814020F886
:103430001F40948BE2B2E5DA2DD3F2F723BDAF62E1
:103440001EB90BFFA5FF22BB3EBF264FEBBBF661AB
:10345000516C86B729E5D1C79B71BFDD67ADFF769B
:1034600096267B338E86E9B21B21D46DB09E7E3BBF
:1034700053D260FBCD58D53DFCA3DFFEE730AD272E
:10348000BD80ACAB5DB377E59DA8AD6AD662AE05F5
:103490008DC3CD782D4EF3C2E2FE53BFD06DB37510
:1034A000E0F5DC4F91D6975E73BD7B33E636DF8C5B
:1034B0006FC6D7BBEE5FA67B32D27CA9CAFB4B6836
:1034C0002FCB0BE973CFDD229578B23B50EDA6F3FD
:1034D0002B5BF679D831F8757B7B32866F24CDF97A
:1034E000B5FC47A71D15E4D755B7A3B5BB7916CCD6
:1034F0005AE5BDBFBF3CDEE563A16AD6E260AE031C
:1035000078E37A772D76F7B316AB3616F71FFE42BF
:10351000F7623CD15B8E347E913DF87B97A5A6F790
:1035200078F9FDFC667CBC9BCE1B5EC0EBE618996F
:10353000E5D1C7E3DD721C2BD23331A19FC32F2805
:10354000D1D025FB3C0CDA417B5DEB299E4CBA6E59
:103550000F4DBAADC2FC02D9E79AD75B6DE86B5349
:10356000D3F4FA286877E6A3A4BEAFC6204D3A6C20
:1035700086F124BDA778A222F462FEA34863D6F7A1
:10358000874A3B9B5FA021D56E589642CDCFA75965
:103590005A237BF3B584D10872E5E2C97A58268EA6
:1035A00015F10FF2032CD9CCE517EAD937649F84C3
:1035B0004D4FE70194BDF39617246CE4FCFADC6DE3
:1035C00078FD82FC02D99F34AF37BCD6B42F53D3D9
:1035D000BF0C8236F5A5BE3E8C411ABFEF0DF2FA44
:1035E000E22C2DEFBFF45833658AC7F91F69FC52EE
:1035F0001A9AFCC29A9394D885E5788CF32D5FCB08
:10360000CF5DD718A55B538C61BACE1B674BDB4BE4
:10361000DB15AFE2F5468797EAFBFAA91D15EE87A1
:103620004A96CFFBEB235BF64958F79A1A0FE6D67A
:1036300027BEBB665E3AE8D6BD4E417E81EC9F3424
:103640000B6A1EF8DDE4D7FBCBD0C731E4FC5A8E01
:10365000412FF8BEFA26AFA7E3111FE945FC87EC1E
:10366000FEFDDC6EDBF7B1659B5F893D89E61BB62D
:10367000A5EDF797767B54E289EF834C50803707AE
:103680005DB0EFB9C39A9DE172ACB7DAF383B6BD12
:1036900057C8E7D7FAD9B72D68135ABD1FF216D10C
:1036A000B77CD4EEBDBDD8226FEE308FEC9DA34524
:1036B0003A17C11736BF60D66094E7B3F05DB7EA3A
:1036C000D5A7F275AFE6553DE8A33752B5CDE1B7C2
:1036D000AD6F5BD43748EAFC822F4D8B5F10AB3067
:1036E0004A74347E553D5B5BB0A137423F40DFE01A
:1036F000DDDE08DBA538B380FF660C73F3B837A2B4
:10370000FA08FE69FC9A6998F07AC3B2F47397B725
:10371000B31C2F6D83679EFA4A6B8CE7CF0D2D018A
:103720006421EA0B23A4C780346B282AE633CC5CDF
:10373000D3A9C5AA07E051E9B56F46857B6F41B6AD
:1037400032937CC7AC3CBC8471D065EF87260FA850
:10375000EC9DC398E951FE55C22F6458C533F8F566
:1037600041F1AB3AADD7DB5D3F434FB956F217831A
:10377000D6AC2FF56539AE4C7FAFCF5AF87A31EF22
:1037800041F91FF9D5D2F855C67FC8CD471F6DBD89
:10379000C00B758F2298CE2FB0A7EEE4175AAAF36C
:1037A000EBE9CB6F4CF367FE2F7E75F6EB7C7E5515
:1037B0003D8CFB2E7EE118F331C0F9A2CF3437BF28
:1037C0004C9DA1451CB5BAE69F5F7D332ADC7B8BFF
:1037D000AC07C9176CEF7278599DCD8462FCC23575
:1037E000B265F0AB92F08B6298C9AF8B84D9B59972
:1037F0008CCEAFA5ED347EC5931D1FFA525F60BE1F
:1038000083FFAF8FB8FE3C3E12AA9E2B7E95F11F20
:103810004628B59AC59315B62FFFD77EC3A3F55B8F
:10382000E717D8E3E617D4F83EB770F73C1C7D9B4A
:103830006B5EF5883581835F8A39288751C194236F
:103840006B6A53707BFEBDAF56F432FC82F6EA56CB
:10385000A48C27F6A801BF50F6A790EF01564E9111
:103860001D45F9757BFBC39B96776CC52FB016D0B1
:103870009CB6756CAC8FC8EB064A18BE4BE717ECCC
:1038800083E037EA6FE457D3DB637BA2D610D9C558
:10389000394DE57357DFE197F19F1927BF1CD5D844
:1038A000ACBC3A5251AA0CBF5C964EF747A3DE0857
:1038B000398EECCADB7FBDBF6CCC62B3C9436020DC
:1038C000B601A3B0CAE6035FD1CBF20BDA3B1973A2
:1038D000B6AE9C668D9A5EEEBDB557289B5FEBAC8D
:1038E00016766C26BFC82F80569BD7B686A4632B4E
:1038F000A9CFE6D7E125DF69BF18340C7ED5A6BE77
:10390000E3B6BEEAE2AC3D76F24BDF7794F35FD3E9
:103910005B8DD5B7C7831F5FAABF0E2F6BB3E85867
:103920009E5F3FA49E4C1EC6537D132FE5F1ABE96D
:10393000E0A1B2C61E05E02F45B0E2FC4A2B1FF7FE
:103940008BF2EBCB1146973C7E353FF0D5E1EA8810
:103950008F66C2AFF9894BDF9D01BF702CA83E8FE7
:103960005F7FDB57F5F1E480ED58905F9C71B7B74E
:10397000C8AEBAC6782A305E59FC4A2BE8BF1D5F34
:10398000712E9EC01AC57DF0249C478452FC6A6843
:10399000BB13B3605EA648FC72F3AB96EC093AC663
:1039A00028E0C9E16EF8056B7AFAAE991758BB703A
:1039B00074F2F65FCD0F3FBEE4339CC75EE217ADF5
:1039C000447D835F6AC71B392388C9AFBF6FED3061
:1039D000F6F29E885F7AFCC26F2E7EFDA3ABEFF0FD
:1039E0008BFB0FDAE43C5839057E854C2FC895E0F7
:1039F00009B71CBF9A53F8FE15DB41EAE5C19BEFFE
:103A0000E397CA51DAFCCADBE3E7FB677A5218B8DE
:103A1000396397D610F78D7606CAC5AFAF5B8F5363
:103A2000E61DF28BE6868B5F6AED2FC2AFAF53AD1A
:103A3000F61C5927C52F5EDB18549293E214D3BAB3
:103A400027AC75CC110525F8C5FDB7CE98DD9ACD0C
:103A5000C4673E97FCD5C7A85C8E5FB0078573D05E
:103A6000D467837064DB8979FEECFD7DCD2BC2AF1A
:103A70009F35FDBF9F5F5747BDD1457256B3390390
:103A8000F909D052CDFDBD73F4A49D4177F06BC60A
:103A9000453D6F47E5AEF9053DBDD2CEF154885F97
:103AA000FCFC48190117BFDE75699754845FBAFFA3
:103AB000F493DE531FB3029C0F7F1EA05D1D36EFF3
:103AC000F6CEF918733FD09E8EF4AC27B9C2A5ED9F
:103AD000D65067992BEF50965F60298FF29FF62B97
:103AE0000BF04BF5ECCA8DB4DA2E7E718EC099B214
:103AF000969C44B2F945F3F7D0917DBE7B7E99390F
:103B00005A2AC42FFD648B67B9D66C4FABF3EB75A3
:103B100057DF7594F19F6BBDD5CBEA29F6BBA2EDBB
:103B2000D83FEDAB9D3FCFFD7F39A2D1FFE23FFCF7
:103B300038E9522E07F285FA6C3A30EED0484B64E1
:103B4000562DC9F2E4C52F7EAF05E7E145E21767C0
:103B500036CFFB343CFBCE07F3AB4BDB3CB38BB92E
:103B600009D4348F5F387B1E3B66FF5DF3EB22F197
:103B7000E586B5BA13BFCC957FF3AC33C408F6E045
:103B8000CDC3384DB352FEF3DC2BB45E6659B26937
:103B9000BF3C52C49360D898B14ED7B131C09C4756
:103BA00090AC5B9B67C7E3CF5DE4D8EAA9DEAA7956
:103BB0007657792DCC32D2E9319D5F7A940E478ABF
:103BC0005F5919B034FF10B329838277389DB69DB1
:103BD0005F05491E83DE751B85F9857DD83BD3BB08
:103BE000E617E5810FBAE6FB08E257CB7B907BFF37
:103BF000686B56C67F2B85DA9F6595A6E0790C77B2
:103C000089274F7D9CCB9D9C7B795C619F64EE12E4
:103C1000A1E01B17D7F9311AAE69FA40DFC8AFF23D
:103C2000F92FDA8B12AB895BB8C373E757796E81D2
:103C3000F28445F8554B668FB946DE3DBFC8A2C039
:103C4000B835A7FC17D859E446BD08BF5CFECB7B4E
:103C5000E54065EF1CD91EFA592F85A0500409FDD7
:103C6000ACFB6D28389317E1575AC1956B91FC173F
:103C7000E59F55BC9CDF59CC64757E55924C35BF91
:103C8000038B27AFFD62FC4A4E69D37F6686F0BF87
:103C9000C12F3A67E92B07E5EF718F9C9547C2B6B4
:103CA0009FF979FC4AF31F674138FACAEEFF3EEDEF
:103CB000F33E30FEB752EF3A486F3A49E5F1F6412C
:103CC0002299CFAF9FC222EF2CE209B2ABCAC6A0A5
:103CD0002CBF1A5ACC52EF3E6D7E61ECD7F71674AA
:103CE0007350845F744AD373E577CF2F7CC9023D4C
:103CF000ED689181EE1F83642F7FD05D4D79ABB766
:103D000077FE7880B336EBFCE8F69FB97BF96B570A
:103D10003F05F0F8DD1BA95967EF17A1C413CC329A
:103D2000521665E5CD5AECD619EF6A717790CD57EA
:103D300028B3377A5E36BF96E3A73EF55DECFED139
:103D4000BCFFE72786680EF2A5C9998623FA1F5E95
:103D5000FA7E7E7E22C99F2423ABDF00E6F14BCFA3
:103D6000BE9A16989960E4573389277A94A2F7137C
:103D7000740FD598FEF697E46D0B9595D3DEE8D3D6
:103D80003EEDABEA9E9EFF2AE6BF35D61E6471D497
:103D9000CB13C09576BBCE735AF7C39E96D10A4714
:103DA00090AB456ED6E6DE07FFBD18F4469C8FCB80
:103DB0003149A23F8AF0CBBC35E55AC18DA6914F5F
:103DC00028F07E02472F98EA87EF60D47D93FD4B61
:103DD0009404BB31CF027A37B591A116545CAA3353
:103DE00059CC34935C92519BCD73FA3DBC5D228FCC
:103DF00034357E75661294DFA979F4D620725A4064
:103E000011807A2756E02D076985B7D82ACE771218
:103E1000EB6AF37E52F234D60B8A3CFF999E239DC7
:103E20001A9E7A2352F1D477574E0BF26817F39704
:103E300037948F0CE6FCAA279909057A01427C4544
:103E4000DBE01BBECE31DF7FA937055C8E6AA9EDB2
:103E50000ACB2714796148B6D779A6CDC94C35CE9F
:103E6000B544561F35FA4EB932FE4DE9DE4CB23438
:103E7000EAD7FDB9F7317BA37C47FCA131AC6BFDE0
:103E8000AAF7EA0E0BE67E5236614CE9CC5BC2EC37
:103E9000817A7393E8D1260DF968553C3ACD9B7E23
:103EA0002DE2BF44A64D165693D9463936657BD5CB
:103EB000C11B972EF42EA2C3E6056A902619CCE703
:103EC0007BC5397BB8DF74B6AA3C4B55695E905D03
:103ED000CAF6E64CC33A1B599B5F6A1ED6939D3DBA
:103EE0001F35F37BE0FC463DF15FF759BB35CD77DD
:103EF0009C5F303EFA2FA3540BD4B835E6B943D6B5
:103F0000D35CAF3AAB8B925AD0A499E842A8B30CD9
:103F100064DFC5AF4CFF459687A82D9C9BFAEF9BAD
:103F2000F36C1079D0D6A5A5F9AEA3D9E492A45527
:103F300002D78FDA9C2D8A35356B8C6A06E6DA3922
:103F4000BC90CD2FF22ACF46A4F18B6C69B17EFADA
:103F50008EEFC1DC73FC5BA0BEB5B996B60EE62B46
:103F600085BEA3DF28D502A37766936903FFFF43CD
:103F7000AA96EA9B33F0564DBF16F19F25E3396DA3
:103F80003734EA67EAC2FF4792D982A9B59A590144
:103F90006B49873546865CCB682F7230C4CDAF88BD
:103FA0005992CD4C6E4B906263A05964CAF29EF850
:103FB000AF4D1DF47134EBB36B5DBDEBBB6D5B5767
:103FC000B32DDE9ADEAAE9D722FE73DB472DA56B5F
:103FD000141956B8FC1E65EA6C8E902D614B67C9AA
:103FE000759C3EC86758D4EE33A4FD3E4DD2FEDE2C
:103FF0004FFDE6EE274F07B33EBBD6D53B1F4DB76F
:10400000AEBC2D5382DBBA88FFB264D235CAD3E589
:104010002457E7FC965CF279F5C5B9A5EBA7505E8D
:10402000D6FE5E0C45B5285BBB784FE9ED7D8FFF72
:1040300016B7AEB82ED992E5C625DF8B0281402097
:10404000100804028140201008040281402010085A
:10405000040281402010080402814020100804025C
:104060008140F0FF8CFF0057C1E2FF789CED5A3F82
:1040700053DB4814FF169824E4BEC58D951CE16BF4
:10408000449E84CF71277190C6142A54DE24460AB8
:104090009DD2A549C181B1618682C2850BE686DCCD
:1040A000E5E05450BAA009B830E0F3D3DBD5BE5DEB
:1040B0004948BEC3A679FB9B14EC3EEDFBF3DB7DC8
:1040C000FB769D73FF9CC16030180C0683C1603085
:1040D000180C0683C16030180C0683C16030180CC0
:1040E0000683C16030180F866E29AACB4E37EF3495
:1040F00033FF7F14EBAA1691F9B0B1D11E17B41F8C
:10410000BEDE9D74FC0EB1E8DDA048F6EEA4DB2B0C
:10411000965D6FC3D83AD1F46EA0A4C1FFBB13352E
:10412000F6FC53C7FFA757A4496F209B37AFA95D83
:1041300045B4EBAB9195985A21B9B83B59898BA2FC
:10414000306B36BA9A37D9168F3E1E296B8AF9B86A
:104150005FF66D3B34F8188FCF4FA04F4A533E9611
:104160003E857EB7221F3751A8CDBB31089259A991
:10417000F6C3E1D947BA56D4C84A1CA43640346EB7
:104180003FAEC4F97A566235C763F24123D729E1BD
:10419000035AB79727FBB61DF881BFAA698A47A3C0
:1041A000484583F2318ADCCA7C80EC5B8D0FD707EF
:1041B0005D1B9AA5B7A7811FA68CA8FE5731484B57
:1041C0001B36DAF1A858533C5219E071F9C07882D5
:1041D0003F1BA57C4084D0432AFBB2ED787ADCA05B
:1041E0006D5FBA5E20D8A37C7C8B1A5EA7221F204D
:1041F000FB46E3A3E1B9135DA6A5BF1E05BED4A58A
:104200007A9FC7208DFDDB4765BA28ABF3E1637D5C
:10421000B0B0B9B059F36ADE7EFF60A8FA572FB28A
:10422000ABEE495BC9D275757B9A957DD9B63D4792
:104230008B1BB6B313198D5BC2C75E647B61453EB1
:1042400040F627CD03CB83189B7C1C0EDB2D8C26E0
:10425000E5632906BBA0FFD597324D677DC5DDBC60
:10426000F8581D5C3521CA10E727A43F1EA12DD4A4
:10427000CBC59DEBA664648B446FFB72229BE10E61
:10428000A294E503D637C886FE39E16337AA7BF6E8
:1042900044DEF62CAFEE818EFDBE1A757A57CDAB9B
:1042A000A6D40D923A1FD0E364F880BDE026910FAA
:1042B000353EEA5ED65AF061BF8F7100DD4BF17872
:1042C000BCDFC779E50E99151BF97CD43D005DF57F
:1042D0001F5AE6AA5BDC01D95A22B91BA9FE832129
:1042E000D8ADCB3E699B71539E838F81C6C77BC17E
:1042F000073252F30C3E8E151FF5C9B83EEFEAA007
:10430000E601F7799975EDC84D74513E6A93EF5DFA
:104310004FCFA44BF175AA41029987AC3B5B3E3A63
:10432000397CA097B6C6C72F2D73D52DEE80952862
:10433000B94672EFC110D69C53910FCC59AEC1470C
:104340004DF021F788C9C7B558095622A3F3B1B07B
:1043500059C4473CDA6A812E1AF9854DE0E3F69498
:10436000DA4FF79F44DD9BCFFE30F90036EC249EF8
:104370006FB47C95F512F840D937ED4372D62C5FB7
:104380006034ABF2311E3FFDE27A6799FD017B0C90
:10439000E04CE63A33F215AE83064A6875C27D7C7E
:1043A000C03908DF987C38DEF6A5EA737BC8065D65
:1043B00003B27D8B667BA2E7F301369F9FD0DDB110
:1043C0007C719F977A5BDCC9668C2C1FAB64144EA2
:1043D0001C930F3CAF10AE4F47DD9EB4D115E3F7F1
:1043E000F37130A495C9DA51C3E0C39AF0417D7DE1
:1043F0001F618E38CBE503EBE379F151D4BE7EAE7D
:10440000CAC7DFA7B87ACBF8708E972FD45F37A7CB
:10441000D47BC1475A9FEAA70BF0617978EAE0782C
:10442000191FBF7F56E3F1688F9C75C80765683C0C
:1044300046366C6D85C836E1C37B7C3EDAFDBC1820
:10444000E735C825E84DD9F9E11CFFF81B5D95AFAC
:10445000083B920F99193A061F780607E9A8B9C3D5
:104460004D3EFE686E11B6A926C987BE3FB02F8F9C
:104470008FBFA2D99EE8E57C4C2ADDA3FC18679B80
:104480009B54A2E84D597DE51C7F6FBE28B8812161
:104490001F81F03A8F0FB97BAAF1F17D62153D21A2
:1044A00054937CD0D1C6514D5452134CC65E92D910
:1044B000F7A246BA12E6CFC7CDE97EFF5AD432D969
:1044C0001843BD0BD1576B6BFB1299CBDE9073F881
:1044D00048B883CA7EF67C80A6F7D138A7493E68E3
:1044E0007D0515B39D7890E56337C24C392F3EA00A
:1044F000DEBDD2EA6E59E567632CF9A031859ACB0F
:104500004AD696791F34F97093CCF6BA45CFDAD9EA
:10451000F161DE294D3EF4CAEFE6D416D582EBEB0D
:104520007C7CD02C9B271F7ADDDDF0B26F20781FBA
:104530005CD8A4F778AC75B1322AE3036F102F7200
:1045400076E743F371DDC41BEE7A26DB4A3ECC4CA2
:10455000BC31087BB8439E7D791E9B96B9E46D7291
:10456000DA5F5EFE1B1FF5E4AE85773D5959C24BFD
:1045700043F63E0892748DEF468DCA7CA08E1B9246
:104580002B66C387BCB7EE45E6FBADE4C3F59E954D
:10459000BE5F49CBA817073DFD25FB7098F77775DF
:1045A0004E8AEEE7783B1637325FBEC375327CA089
:1045B00024AD5571AF57E3C312777033673D3C1F8D
:1045C000D2A3C078A594F70FF0B3CA0BA6C907FE13
:1045D000BA40E31F68AB16FE9EE68DBEE87EEE9005
:1045E000DB98FAD5C8E4A3266EF2DFC859198F3ECE
:1045F000B4AAF121AA98C9BFA7C6DA9C051F78976B
:104600006F78B4DA55F7733CBBD74A5EDC5707AF17
:104610005B75ED3CE9F4F493F2700833E97F4F7376
:10462000A32FBC9F933DA13265960FCC65AE562F4C
:10463000EEF7F3DE77F3F990558C7E177E783E9295
:104640009C9468DA6AD19C25DFAF027176EF453A17
:104650005FAA6D5FBE10753FE523ECE955E7E1B059
:10466000A1E986BFA779A3CFBEEF82ED6A067A1EC5
:10467000997C408CE5394FE375306CB5CAEB5DB77A
:10468000A7DE445C5F7F412AE3C33C53750FCC9B9C
:104690002BF2E188FDAEEF02F9BE2BDF651A936FB6
:1046A0007F6EE10BBB6CCB17FBFD3F3FCB73D5D2CD
:1046B000BC087AB6A1CBD46D135BAB66AC60120FAD
:1046C0007CD7963B3BAFA24349D8F3F89B04F8ED67
:1046D000689EC819D4BAB7892C6436781B443971DE
:1046E000A349F6A1FC7E61F3BA79D554332B3EC2BF
:1046F0004402E7C2D5AEDE59B31EC83C28B5D74543
:10470000CC43D425FAF1D550BDCC84C23B2BD593F4
:104710005FF73B49DEC37767F9F6EA88EFEAE29D87
:10472000538D5B642F57E7036D54DFE7F1A9E26215
:104730000959DDCB06B500AB778FCA3AE2B5567999
:10474000E27A322B2A59A8B12D6D4D74D388DB9AA9
:104750005E9993733D10A78519138C3ACE84D5BC0E
:104760007A431776F8D2C21A61A596461AF333C671
:10477000DF4AFB1CC180E5C91A451B9F7A7F801563
:104780008DB4BACD7F31EB921D628B7541BD34FB88
:1047900083DC3EA9897EDD21F35AA90DA1C107ACB6
:1047A00004FDCB6EA107789773D3D8A8DFE93BE966
:1047B00088ADF9DB49E6E908AB697CAD74CDAB1790
:1047C00065E5856448E96AA4BF12E8BAABF321AD98
:1047D000A0D56D111FA1F0C71559577A69F6631E50
:1047E00032FB02D5E7CBAFBBB936D035D12571A4AA
:1047F0007ABB851E18DA7DFABF4B745BE9FF2F5137
:10480000A372DC494067EDE812BEAB7B457AB2BAD1
:10481000ABF1D1253A688C8A65B395B0DEAF5832DA
:1048200065A9A6D08803B521D4AC30C7EF1FCDD37E
:10483000AE5727595BCDB9E86CD959B3B6E8B687FE
:10484000228797C5B39891AEA6ABE83E592499ED5F
:10485000EF14F6E5EB29B3C11CBF7F344FBBFCA2BC
:10486000D8563A972961FA9A375E8CA278DECF083B
:10487000C5F4B2D9FE6AA86AC5B4A3FF5D53F17C42
:10488000D368AB1A4F0683C16030180C0683C16031
:1048900030180C0683C16030180C0683C1603C06DA
:1048A000FE052562F74B00789CED97BD72DB381052
:1048B000C71FE36CE74144FB1E44A41FE424F00D32
:1048C00058A070A1C88AC842850B65C69A890BFAA0
:1048D00044532C54A850A142052F96E3F7B01D175E
:1048E00087C50204F8218B9EE4E632999DFF8CC7B0
:1048F0000417BBFBC32E00EA913F9248241289445F
:104900002291482412894422914824128944FA4F62
:10491000F41A2D38EAFFCEE4676BC1CFE27C77163C
:104920006BBEDF8910D9F2DD70937250956ED14A5B
:10493000CD9E9B6DEA63ED62BC7FDD179C2D91EDF2
:104940006E30E6A1E2336FFF9C5DAEE13D5878D951
:10495000F7AB949FCCF01974BBF5B26F83B421F21E
:104960006BE4656813E7C2264A8BFCCE13183D4FF3
:10497000CCC870633CE6BBFE0AADBF0DEC518CFDAC
:104980003E46C3960836904DA7ABDA5F7A19E41A13
:10499000E77703A4838C41B75BF8FF64A66BBE285E
:1049A000CDBB5C830DE42EFAA2580364B13B0546EF
:1049B000D05658AFC1E383E0433A8C3D942B7C9AA8
:1049C00094E3B465FB34F003218ED5337490FDC9B4
:1049D0000CB9C77C3781BF48A7C7DC4C676356F664
:1049E000C367F06AE69D262F53EC8A947FBF02FBD3
:1049F00038CF77E00D4781EE34D1D6FD55BE7397A1
:104A0000637E27E930E6983F5FC3D3711C36EE9E84
:104A1000436C4CC80F6C3ADD1B2F539F0B29FA31A6
:104A20003F9674F259AAB7C66C426E57C7CBC0D630
:104A3000571A734D023DE02E5D11D9C9F46A82BD4B
:104A400093687FC031DCF8FC938C7E3FD1E34E024B
:104A50003BC1C469CBC6024F08B34F2DBA9463E77C
:104A600039D968C002CD07D1E31CE6E08A1CDD40DD
:104A70005453F7D708FC26915A916255D037787C69
:104A8000BE7E021F5BA6DE201D0B5040D15BFBC12A
:104A900048D2CD279E1A9F2BBF87F9EA6C76E50C8A
:104AA0009D7D8238D93C32747A8E1FDC4F542D554F
:104AB000FED097E259B371CD06BE5FA668EB05D074
:104AC0009B4FD71053D379328FF92416FC47E289D4
:104AD00049BABF272612CCB99F966BD0245C5F5889
:104AE0000964F3028C63AF09D0853C899C0CBCE25D
:104AF000E927FA643F9D5A1DDC597EC0ACBAE95DD6
:104B0000D75F425FB2C00DBAE2BFEE9249FAF299A6
:104B1000292AB792DE2F349DF6A4E88A4CF755CEA9
:104B2000DC71ECC2EECAF2AD047462EF48FA8E6436
:104B3000848E317438EB38565DA6A23EC8959B47EB
:104B4000CC3AA7B4C0C7F3B527E8FE515E206FA0EA
:104B5000EBAD3B5927EBAE345B854EAC4122FD8E6D
:104B60002293EB7EBA546695EF3E6EFA1758B96AF7
:104B70002FA3159C0C58DFA72FB8DF9E2C3A7DC6BB
:104B8000C92AA8A82187F3DBC958A91FCC8ADA7AD9
:104B9000FAC214DD1F892BA300BFEAC6820EFD9C5A
:104BA00026B08AC87A986ECCE13C003E36A8570EF3
:104BB000AD4E662F57503D26AB072BEC55E864CC25
:104BC000DC540AE8607789BD73A3E9CEE2F30422DE
:104BD000C277416FED641DA9BFD6E88F1574208898
:104BE000D2C5CE1CD874C733E03EBA694F87E71DE3
:104BF0009E2D4D74AF119C70C38D9B39596F0596D6
:104C00005FA76EF055D2417E8EBCCDA1D7FCC054BB
:104C10002A2D6E27207133DC551F3E63C7DE4F3DC2
:104C200049E104971379E38FBC125DFF42570FE906
:104C3000BA4B88D35BE3B9A676733BBA37F9B07643
:104C40005E71A6F4561013E9B4E2AD93A92F81E288
:104C500054C1DD3A17A791F98A7A884279EFDF6E5D
:104C6000A10B5CA58F82AA93693A4F9D6F70DE40BD
:104C70004D47A52F3127C39BCFEEF7FD37425AE3AF
:104C80004B06D533535BA19D57132B6E743F3037C2
:104C900082F15CBE11708C35F831FE58C5276B8AE5
:104CA00074F0465834F255EFBB321DC6F6D45F9D02
:104CB0008D1D53CF5667AD759B170AFC5AFECCA6C7
:104CC0002A596ABE12356FF3B552E713A740E55B68
:104CD000C5D0956B61E56D55C77C89693EF325E6C6
:104CE0001B2FDCAE66E1B7326A5957AAD6EE4BAC41
:104CF000CA378FCCCE69EACD43B2BFA20FCF33FB08
:104D0000B33EDAF4A66AD3E6574299AFE93782B6E2
:104D10000895522B7EA8A2E951FB17909ED734D359
:104D20005857C79A1416A4F538EDF9CA3578ACF17E
:104D3000BD9D573D62D3CC6A7DCB36FBDFD467B7D0
:104D400061B3F9C252DDEB791ED23EDF6F5BB7F380
:104D50007D28CE21BE45657DDEEBE357D68FAFD0F3
:104D6000AFAEDF978C4422914824128944229148A7
:104D7000241289F4B6FE05BBE4EA4A789CED97BD9F
:104D80006EE33810C7DFE312F9390E874B9E23BA62
:104D90008DF73DA4CD7A6B157C00ADE5A4728A0039
:104DA000D7B854240470A9D285042CECA870E9C2A9
:104DB0006580B3151D87438AD4872305B78B5B2C89
:104DC000C67FC0B0A8E1CCFC382352DEB00D8944C8
:104DD0002291482412894422914824128944229124
:104DE00048A41F22EB2166A8FF3B93EFAD983D2717
:104DF00065F99C28BE5F8910D9CAF26E1F315093A5
:104E00002E1EA46ECFDD36EDB16131DEBFEE31BBBB
:104E1000CC916D3D9BB240F2E9BBB7CB2FBBB24406
:104E20008B51365E447CA4AC3E4F2FA3AC98451DFD
:104E300091AD87518636F9619459F75195DFEB0AA8
:104E4000465F577AE46E5F1A9F8F5BB42E66E62842
:104E5000C67E1FA3667BF4A70C64D2A9AA5EE6A354
:104E60000C72CD0F6B4E325B62C6A0A717F83D5B8C
:104E7000AA9AC7B5795F766003B9C3DA453516B328
:104E80005360046D47D964071ECF39DF7AA6634F9C
:104E9000766A45BA56B29FCDF5B818564FD341F64B
:104EA000B325724FD99F0BF8463A3566652A1BBD6C
:104EB000B29310BCEA799BD575885D11B1F102EC13
:104EC000F3435982371C05BACD4A597FDC02D354CB
:104ED000D2614C6E293A264E82CEA7A78FCDE172C1
:104EE0003D934EF5C675E8322E498F71F283B816A0
:104EF0008275856C026656679481AD2B35658A0490
:104F00007AE032BFE0918B54AD26D2297F37DCFFA7
:104F1000EDDE658F3E443F5BA8F1CD0A9E041D6720
:104F2000185BE83B9ECD85D947065DC4B0F38A1473
:104F30006CAAEA0A3A98832B12251055D7DD7A001D
:104F4000BFC7B95C916A55D03778BC5902C1D38BC1
:104F500023EF209DE3A1D69C62B273BD50D2D972DB
:104F6000FCDB1CAE0FF37EBE369B59394D373376D2
:104F700090223DCC219B1B41A7E6B8DED942D652F8
:104F8000E6FF3914D78A8D29B640DFE373A1373F96
:104F90002D2126D2AD57B6C8E36C01FC70F555D073
:104FA000FDB6D09160CE87B05E832EE1FAC24A2072
:104FB0009BED611C734D802E608779918257DCFDDB
:104FC000789F9CA693AB7321AF1DA36EEAA983358E
:104FD000BDCC1DEFCAB3F82F2B7704FD6D6DCF2C20
:104FE000CBF116BCFB159DF224E9AA4C4F558E4B14
:104FF000EC6AB77BDF37BBB27E2A011D7F7604FDEA
:10500000513042C7683A9C1527B2CB64D4F37BF089
:10501000FC6DEE18FB9412F8B859DA9CEE2FE905F6
:10502000F206BAC9EE981ED3F156B135E8F81A1C4B
:10503000E6E857E77A9A2EAAF14166CD5E462BD86C
:1050400019B0BE4182CF9B49A7F6B88BDCA9562880
:1050500060B0CF14A953EB07BDA2E627481C49B79F
:105060005E5D8928C08FDDA8E9D00FEE2AC8DA4F2F
:10507000C72D24DF57BF5D39B49A2D6147862E8333
:10508000EAC10ADBDEA71A1DC4CC0FBA5240771D55
:1050900062E68AEE39795D4144A09EEC8AF4288468
:1050A0005790ADA203419466678A9E5F0277940C85
:1050B000A773453D802FF4BBE8AC0778C2EFF645F7
:1050C0005A889E29CB3FC22B49774C6114EE43AFDF
:1050D000B99EAE5424771E24B1323CBD3F87D8B16F
:1050E0001F425B50FCEEFDF337769A5DA3F37D55CE
:1050F0003DDC55AC1CE2E069CECF10CFF18675A641
:10510000388D2ABEC7161FD66E94A93D65BC8598FA
:1051100048A73E4F2F452ADF04AA5D059F56D88D2C
:1051200094D5283BBF0FC44907CF27D28180EA9886
:105130002A3A5BEE6FB0DF404DF144D03B369E7CA7
:1051400066BF9F3E11A25EBEB8B2423BBB25A73AE6
:10515000D15D4F9F08DA73FD44C031A7C38FF6E7D6
:10516000347C3A5D917A4F84B893AF79DED5E930DB
:10517000B62DBF5536664C355BEEB5C6695EC97354
:105180005BF93B2655CD52F1D5A8D990B795365F3E
:105190009434DF55345DBD1646DE4675F49B98E2C7
:1051A000D36F62AEF6C2CC6A567E1BA38675A36A25
:1051B000C3DEC49A7CE21CF19A6FD126DFDB32DFBA
:1051C000A2FBE7E9E7B33DDA75A76933E45F429DE7
:1051D000AFEB3F82B208A422237E20A3A951F31F84
:1051E000909AD735535B37C7BA1454A4ED38C3F936
:1051F000EA35D8B4F8DECEAB1DB16B66B3BE759B95
:10520000D377DAB387B0997C41ADEEED3CFB74CA3D
:10521000F7DBD6C37CF7C5E9E38B1BEBF35E1F3FDF
:10522000B3FEFB0AFDECFA75C948241289442291A9
:1052300048241289442291486FEB5F1B0A639C78D3
:105240009CED98BD72DB4610C7DF42B43C4EDE22B7
:1052500043DA519E23E0487A8F0019D90D555C81BD
:1052600032133340D8D15D1A171E19029419152A2A
:1052700058B06041CFC86258A854C126920ACA6289
:10528000B0581C6FEF70108EA3C49AC92CFE150F76
:105290008BDBFDDDD7EE7116CE582C168BC562B1B7
:1052A000582C168BC562B1582C168BF53F55D62855
:1052B00077DBCDFADDA46777BF757A9DAC6A9E6F08
:1052C0003FDD4FD23025FDBDB9AAB3BD9F64A37A9F
:1052D000DB8304DE1D104F6FAE943550DE4FD4BB20
:1052E0006FDEA5E15FA33A4FFA03B66EAC99E6BF55
:1052F000FACC97BF9FAA98EA491FB6DD4B62837428
:10530000B59A4DA04D5A53D217EFE2307324055B86
:10531000D9CBE348694C6903293CD9C866BB97449B
:105320006114EE6B9EE6CBE5305A47494997C3C0FE
:105330009914FA88FE35528C14085E3792A2EFD485
:10534000B07D95F82208F70C4F834520A2725C28A7
:10535000E9F9B02B5247D2F321F41117AC9B901E00
:105360005C6D1D6E1DB6444B1C8F4F6E55FBFE656C
:1053700010C2D8D1E8B713653B5FAAF62FD3AAEDC8
:10538000ABC413BED8AD8CE9C544B27E21A41F873F
:105390009E881D493FE6A31294B3BA09E9FED5756C
:1053A0000FE207826DD23E5FE6FD093DFA671F6E90
:1053B0007A92F53712D76081BEF551E988AE85B48F
:1053C000989310E66446488F866DE1E5F69EE8887E
:1053D000B6001FC763F5D61F5DF7AE7BD237F48BDF
:1053E000A3F530695643DA16203A536FFBD0A34E2B
:1053F0000AB6ADC2F268A8DA4F6E61FE74DBED0446
:1054000062FFDE423A58F802560025FDB52445D623
:10541000963048CF14691B491DE634334E44248529
:10542000EFBD5C94F4A73EC4AF93E29882E5CFA7AA
:1054300094B49D7BF71D497105070669AB2495F36C
:105440006A92DE94632C67B4799F564981D32B22EC
:10545000DDD556EFD621F46A92A2ED6EF227D9D3AC
:105460003B9718A72BE96AF5FC7D202E2A730AEBDF
:1054700002E4E77D5D18AB17471828F14C683E7BC6
:10548000EDA4D0C36C426774E7B24A5AF73CFB8084
:10549000BBE761D27DF21676B6498A73850A42FA75
:1054A0003618C91891D22D9F9AA475CFA73F5C4991
:1054B0003F4F71C49B48FDB39D4BF5EB6E4A67AD02
:1054C000240D6506D27731907604EEEE34A495D69D
:1054D000E34993B12D7ADB032B0BD774D33EF5CF81
:1054E000BEFB85AE9A1F08B7248D4B8AD42085DD7C
:1054F00021CF5BD7BAB79934CF2FA7F6E8AB4F507F
:105500009CFF38FB4D67AF7FF677EFE569B50F4538
:105510002ACF531BA96B0E7525BD9B1E8F6FCA73B7
:10552000AE1A3D6419E052333358E098E01E6A2009
:105530002D46E5C5FCA94821CBC8DA41499EE64184
:105540006823A5D1C2790C7BA85A3998A441B1CE61
:105550007FECD34AEC6948A1F201415DE0953D9BA7
:1055600035125AD25A0A330C9E9A4DA498115F5A9A
:1055700056D4D7246D175919AB02799EC7B9AA958D
:105580000358D279391A769D49D1C7DDF4A9486507
:105590003DD095B97B9DB3D20A295AD20C7137758B
:1055A0009FD34E5907992BF8EB90CA5356E56D954A
:1055B000994DD256594D9D93AA77BE7CDB77236DCA
:1055C000957E7CF1FCFD539176B5795459AB4A8AAE
:1055D0002B3B1083856A3F1EDBEE3276D2E2EBFC7A
:1055E0007BBA2AFE2B52F32E036B4ADE19F5BC6CF4
:1055F0009242F4F2A4A2919CDCF6FBCD592618A9A4
:105600008A2F087D6DAC9A48695DE14A8AFD44B9EC
:1056100027BC1DC96C681B2FB40CF2F77867841C7B
:10562000EB0B599976490F6AAE3C620BEB1CAA75DD
:10563000B46BADEF5BF1FAFBADC39BDE754FF5AC20
:1056400048E3C202FBC2FDEDF63F832D7E4FE09D95
:10565000B4533B5ECA63A7B4F5CA1B535C8E404784
:10566000F55030A8367537F1CB7B98FA3A5D8F202C
:10567000B44366D36FD7D97A363CCDAFCB7F4716CC
:10568000D2D02FEE821EF1512555B3EA956791AC29
:10569000C2634B7B646D939EE8D729E9B7B38E2133
:1056A0003648618CF52F37E144D2B48C8AE6943ABF
:1056B000525C6B681B9148CD765C95665BA4DA42C0
:1056C000F975668D818EB67C6FFADD94345B471A6E
:1056D00069DEEB6DABF9476F57FCA62DF544BF367D
:1056E00063D0EF9CE67BD77F786DF16724B6FAFB39
:1056F0005E9D65B53DAD6DB3FB698AC17CEF7653A8
:10570000AB23A0DADCB6DAEE26D728368991C5625B
:10571000B1582C168BC562B1582C168BF578FD0349
:10572000E481E6F700789CFBFF7F140C1CB8FF5B5C
:10573000EE7AFC736A9B19B7E96EEFDD5EFBFBD472
:1057400037939AE6229B492D73D1CDA486B9D8CC44
:10575000A4DC5C84997FE7CE7F7FEF1435CC45983D
:1057600002321355845C7331CDA4DC5CEC66526666
:105770002E6E33C93717BF99E4994BD84CD2CD253B
:10578000CE4CD2CC25DE4CE2CDAD7F4D8A99A8E639
:10579000DAAE22A48A583391CD251406A4980902C2
:1057A000FF2EFD9D4BCD7277140C1700005E82ED2D
:1057B000F9789CED973D56E3400CC78F41968B10CE
:1057C000B808F65E24F1DC608A29529810E214943D
:1057D000144B41611E8EED2205458A1429FCD81018
:1057E0006EB2C55A23CB33FE20B1A1C8EE7B7AFF3F
:1057F000C6A3CC483FC9B2EC7CA80F168BC562B1DA
:10580000582C168BC562B1582C168BD5517F168932
:10581000429D9AA48B12751566BBAB9098FB5227DC
:10582000DF56573F26E27493ED803956714F663A42
:105830004B7253F4E1A6B6F5767DFE889E61F7CFF4
:1058400028517B1F23120BACC32C51E78FF639D2A2
:10585000DE8F6BB9ED7D8CFB230C1451F721BE5DFF
:10586000BB2908AEA71BF000C4D30D5A9D95A9070C
:10587000ECB88CF22B4D1C66EF8B584744E258BDB8
:105880002FCC9930735247AFE21A5592AF9625F359
:10589000BC073355ED329A2BD4F3167D00F1F89501
:1058A000AC9751B67BDEC215ED5EFA58BDE97AAE13
:1058B000829238507462770F6BA144B10E2A771F21
:1058C00088832F312745D586919028A8CD3015CAD9
:1058D000C98947AF64BDD37C77BEA0DDEAAEA831ED
:1058E000AC8068A9898957A8DF9AD8959E3E0F3663
:1058F0009B0989E7B997BECC86D893E0DD93A335A1
:10590000F20F3531DA3CF98215CB63537E334D7C8F
:105910001681FD652154E41735955057438CCC6DA5
:10592000C4B1CE6CD693D910836F570E9EE0F4CBE2
:10593000BD2B2F72E2EB57B4CE7CC863A457B07B6B
:1059400090EFF634F17872BD827EF7F45DC09CDA98
:1059500089835A1F539521F73ECC446C6BF0047138
:105960002ED2AA35A7F289F80C882760752643192C
:105970006EC1E2F96517587D0C2784B6D4671832DA
:10598000CF91798131A205311F271EAD2F521456B8
:1059900015896F3668CB636FC94EC4E392F8F9017D
:1059A000AEDE1E4AC206F1BC85D830532F5FAFEC85
:1059B000DC8E110F2222C2BEA5AE70A4935F434FAE
:1059C000D08E26F150EA6EDEB6117B45CDDBEB06BC
:1059D00064CB92D729B2EB4A8C6CF46CE39387C406
:1059E0008E7CFB65AA4CF921F178823B6E36383902
:1059F0009C06B13848BCB778BF4A8C1184C2594163
:105A0000D69BA2B26DC460BD9DC19C0BB361D9058C
:105A10005D8889D759B9B23FB13D87404E4AD3819D
:105A20006648B8F57CCFCC0A4DEC4DDCA28B70CE2D
:105A30001171406F9003C48657941DD9AD8FF179D1
:105A4000F52A7333A858EBF2A42B4DDF1B5B5127CB
:105A5000FD86D3934B09EBB9EBC02BBBCD8AD2B7F4
:105A60003273DEB216F355D0AA217ACB21B5C9BA6A
:105A7000B0966FE86A5C9AC1947FDBD4FE8C382EB6
:105A8000BF05CC044FCA3AB7C9CAA16E2FEE6B5CF2
:105A9000F1DBAC1B7E1FE7BC4AF4E2A59918EBBB17
:105AA00018589E93222659E34F3368FE1E5B325EE0
:105AB000EBC4F09567F59DEAC66B3357BF07ABD6CD
:105AC000E34A6AABA4E2A1C951EFBBEEBCCDFF0D26
:105AD000EDD6EFEB703776E7ADF31DCAE5184DD381
